{
  "_format": "hh-sol-artifact-1",
  "contractName": "MyEpicNFT",
  "sourceName": "contracts/MyEpicNFT.sol",
  "abi": [
    {
      "inputs": [],
      "stateMutability": "nonpayable",
      "type": "constructor"
    },
    {
      "anonymous": false,
      "inputs": [
        {
          "indexed": true,
          "internalType": "address",
          "name": "owner",
          "type": "address"
        },
        {
          "indexed": true,
          "internalType": "address",
          "name": "approved",
          "type": "address"
        },
        {
          "indexed": true,
          "internalType": "uint256",
          "name": "tokenId",
          "type": "uint256"
        }
      ],
      "name": "Approval",
      "type": "event"
    },
    {
      "anonymous": false,
      "inputs": [
        {
          "indexed": true,
          "internalType": "address",
          "name": "owner",
          "type": "address"
        },
        {
          "indexed": true,
          "internalType": "address",
          "name": "operator",
          "type": "address"
        },
        {
          "indexed": false,
          "internalType": "bool",
          "name": "approved",
          "type": "bool"
        }
      ],
      "name": "ApprovalForAll",
      "type": "event"
    },
    {
      "anonymous": false,
      "inputs": [
        {
          "indexed": false,
          "internalType": "address",
          "name": "sender",
          "type": "address"
        },
        {
          "indexed": false,
          "internalType": "uint256",
          "name": "tokenId",
          "type": "uint256"
        }
      ],
      "name": "NewEpicNFTMinted",
      "type": "event"
    },
    {
      "anonymous": false,
      "inputs": [
        {
          "indexed": true,
          "internalType": "address",
          "name": "from",
          "type": "address"
        },
        {
          "indexed": true,
          "internalType": "address",
          "name": "to",
          "type": "address"
        },
        {
          "indexed": true,
          "internalType": "uint256",
          "name": "tokenId",
          "type": "uint256"
        }
      ],
      "name": "Transfer",
      "type": "event"
    },
    {
      "inputs": [
        {
          "internalType": "address",
          "name": "to",
          "type": "address"
        },
        {
          "internalType": "uint256",
          "name": "tokenId",
          "type": "uint256"
        }
      ],
      "name": "approve",
      "outputs": [],
      "stateMutability": "nonpayable",
      "type": "function"
    },
    {
      "inputs": [
        {
          "internalType": "address",
          "name": "owner",
          "type": "address"
        }
      ],
      "name": "balanceOf",
      "outputs": [
        {
          "internalType": "uint256",
          "name": "",
          "type": "uint256"
        }
      ],
      "stateMutability": "view",
      "type": "function"
    },
    {
      "inputs": [
        {
          "internalType": "uint256",
          "name": "tokenId",
          "type": "uint256"
        }
      ],
      "name": "getApproved",
      "outputs": [
        {
          "internalType": "address",
          "name": "",
          "type": "address"
        }
      ],
      "stateMutability": "view",
      "type": "function"
    },
    {
      "inputs": [],
      "name": "getTotal",
      "outputs": [
        {
          "internalType": "uint256",
          "name": "",
          "type": "uint256"
        }
      ],
      "stateMutability": "view",
      "type": "function"
    },
    {
      "inputs": [
        {
          "internalType": "address",
          "name": "owner",
          "type": "address"
        },
        {
          "internalType": "address",
          "name": "operator",
          "type": "address"
        }
      ],
      "name": "isApprovedForAll",
      "outputs": [
        {
          "internalType": "bool",
          "name": "",
          "type": "bool"
        }
      ],
      "stateMutability": "view",
      "type": "function"
    },
    {
      "inputs": [],
      "name": "makeAnEpicNFT",
      "outputs": [],
      "stateMutability": "nonpayable",
      "type": "function"
    },
    {
      "inputs": [],
      "name": "name",
      "outputs": [
        {
          "internalType": "string",
          "name": "",
          "type": "string"
        }
      ],
      "stateMutability": "view",
      "type": "function"
    },
    {
      "inputs": [
        {
          "internalType": "uint256",
          "name": "tokenId",
          "type": "uint256"
        }
      ],
      "name": "ownerOf",
      "outputs": [
        {
          "internalType": "address",
          "name": "",
          "type": "address"
        }
      ],
      "stateMutability": "view",
      "type": "function"
    },
    {
      "inputs": [
        {
          "internalType": "uint256",
          "name": "tokenId",
          "type": "uint256"
        }
      ],
      "name": "pickRandomFirstWord",
      "outputs": [
        {
          "internalType": "string",
          "name": "",
          "type": "string"
        }
      ],
      "stateMutability": "view",
      "type": "function"
    },
    {
      "inputs": [
        {
          "internalType": "uint256",
          "name": "tokenId",
          "type": "uint256"
        }
      ],
      "name": "pickRandomSecondWord",
      "outputs": [
        {
          "internalType": "string",
          "name": "",
          "type": "string"
        }
      ],
      "stateMutability": "view",
      "type": "function"
    },
    {
      "inputs": [
        {
          "internalType": "uint256",
          "name": "tokenId",
          "type": "uint256"
        }
      ],
      "name": "pickRandomThirdWord",
      "outputs": [
        {
          "internalType": "string",
          "name": "",
          "type": "string"
        }
      ],
      "stateMutability": "view",
      "type": "function"
    },
    {
      "inputs": [
        {
          "internalType": "address",
          "name": "from",
          "type": "address"
        },
        {
          "internalType": "address",
          "name": "to",
          "type": "address"
        },
        {
          "internalType": "uint256",
          "name": "tokenId",
          "type": "uint256"
        }
      ],
      "name": "safeTransferFrom",
      "outputs": [],
      "stateMutability": "nonpayable",
      "type": "function"
    },
    {
      "inputs": [
        {
          "internalType": "address",
          "name": "from",
          "type": "address"
        },
        {
          "internalType": "address",
          "name": "to",
          "type": "address"
        },
        {
          "internalType": "uint256",
          "name": "tokenId",
          "type": "uint256"
        },
        {
          "internalType": "bytes",
          "name": "_data",
          "type": "bytes"
        }
      ],
      "name": "safeTransferFrom",
      "outputs": [],
      "stateMutability": "nonpayable",
      "type": "function"
    },
    {
      "inputs": [
        {
          "internalType": "address",
          "name": "operator",
          "type": "address"
        },
        {
          "internalType": "bool",
          "name": "approved",
          "type": "bool"
        }
      ],
      "name": "setApprovalForAll",
      "outputs": [],
      "stateMutability": "nonpayable",
      "type": "function"
    },
    {
      "inputs": [
        {
          "internalType": "bytes4",
          "name": "interfaceId",
          "type": "bytes4"
        }
      ],
      "name": "supportsInterface",
      "outputs": [
        {
          "internalType": "bool",
          "name": "",
          "type": "bool"
        }
      ],
      "stateMutability": "view",
      "type": "function"
    },
    {
      "inputs": [],
      "name": "symbol",
      "outputs": [
        {
          "internalType": "string",
          "name": "",
          "type": "string"
        }
      ],
      "stateMutability": "view",
      "type": "function"
    },
    {
      "inputs": [
        {
          "internalType": "uint256",
          "name": "tokenId",
          "type": "uint256"
        }
      ],
      "name": "tokenURI",
      "outputs": [
        {
          "internalType": "string",
          "name": "",
          "type": "string"
        }
      ],
      "stateMutability": "view",
      "type": "function"
    },
    {
      "inputs": [
        {
          "internalType": "address",
          "name": "from",
          "type": "address"
        },
        {
          "internalType": "address",
          "name": "to",
          "type": "address"
        },
        {
          "internalType": "uint256",
          "name": "tokenId",
          "type": "uint256"
        }
      ],
      "name": "transferFrom",
      "outputs": [],
      "stateMutability": "nonpayable",
      "type": "function"
    }
  ],
  "bytecode": "0x608060405260405180610160016040528061012f8152602001620043ea61012f913960089080519060200190620000389291906200067e565b506040518060c001604052806040518060400160405280600781526020017f6e75727a68616e0000000000000000000000000000000000000000000000000081525081526020016040518060400160405280600681526020017f617a616d6174000000000000000000000000000000000000000000000000000081525081526020016040518060400160405280600581526020017f6d6172617400000000000000000000000000000000000000000000000000000081525081526020016040518060400160405280600981526020017f6e757273756c74616e000000000000000000000000000000000000000000000081525081526020016040518060400160405280600981526020017f6d69727a68616b7970000000000000000000000000000000000000000000000081525081526020016040518060400160405280600981526020017f62616974757273796e00000000000000000000000000000000000000000000008152508152506009906006620001b69291906200070f565b506040518060c001604052806040518060400160405280600981526020017f656b6962617374757a000000000000000000000000000000000000000000000081525081526020016040518060400160405280600981526020017f706574726f7061766c000000000000000000000000000000000000000000000081525081526020016040518060400160405280600581526020017f616b74617500000000000000000000000000000000000000000000000000000081525081526020016040518060400160405280600681526020017f617374616e61000000000000000000000000000000000000000000000000000081525081526020016040518060400160405280600881526020017f7368796d6b656e7400000000000000000000000000000000000000000000000081525081526020016040518060400160405280600681526020017f616c6d6174790000000000000000000000000000000000000000000000000000815250815250600a906006620003349291906200070f565b506040518060c001604052806040518060400160405280600581526020017f677265617400000000000000000000000000000000000000000000000000000081525081526020016040518060400160405280600481526020017f636f73790000000000000000000000000000000000000000000000000000000081525081526020016040518060400160405280600981526020017f62656175746966756c000000000000000000000000000000000000000000000081525081526020016040518060400160405280600981526020017f666f72676f7474656e000000000000000000000000000000000000000000000081525081526020016040518060400160405280600b81526020017f70726f7370657272696e6700000000000000000000000000000000000000000081525081526020016040518060400160405280600381526020017f6e65770000000000000000000000000000000000000000000000000000000000815250815250600b906006620004b29291906200070f565b50348015620004c057600080fd5b506040518060400160405280600981526020017f5371756172654e465400000000000000000000000000000000000000000000008152506040518060400160405280600681526020017f53515541524500000000000000000000000000000000000000000000000000008152508160009080519060200190620005459291906200067e565b5080600190805190602001906200055e9291906200067e565b505050620005ac6040518060400160405280601e81526020017f54686973206973206d79204e465420636f6e74726163742e20576f6168210000815250620005b260201b6200133f1760201c565b62000930565b6200065281604051602401620005c9919062000844565b6040516020818303038152906040527f41304fac000000000000000000000000000000000000000000000000000000007bffffffffffffffffffffffffffffffffffffffffffffffffffffffff19166020820180517bffffffffffffffffffffffffffffffffffffffffffffffffffffffff83818316178352505050506200065560201b60201c565b50565b60008151905060006a636f6e736f6c652e6c6f679050602083016000808483855afa5050505050565b8280546200068c90620008ba565b90600052602060002090601f016020900481019282620006b05760008555620006fc565b82601f10620006cb57805160ff1916838001178555620006fc565b82800160010185558215620006fc579182015b82811115620006fb578251825591602001919060010190620006de565b5b5090506200070b919062000776565b5090565b82805482825590600052602060002090810192821562000763579160200282015b8281111562000762578251829080519060200190620007519291906200067e565b509160200191906001019062000730565b5b50905062000772919062000795565b5090565b5b808211156200079157600081600090555060010162000777565b5090565b5b80821115620007b95760008181620007af9190620007bd565b5060010162000796565b5090565b508054620007cb90620008ba565b6000825580601f10620007df575062000800565b601f016020900490600052602060002090810190620007ff919062000776565b5b50565b6000620008108262000868565b6200081c818562000873565b93506200082e81856020860162000884565b62000839816200091f565b840191505092915050565b6000602082019050818103600083015262000860818462000803565b905092915050565b600081519050919050565b600082825260208201905092915050565b60005b83811015620008a457808201518184015260208101905062000887565b83811115620008b4576000848401525b50505050565b60006002820490506001821680620008d357607f821691505b60208210811415620008ea57620008e9620008f0565b5b50919050565b7f4e487b7100000000000000000000000000000000000000000000000000000000600052602260045260246000fd5b6000601f19601f8301169050919050565b613aaa80620009406000396000f3fe608060405234801561001057600080fd5b50600436106101165760003560e01c8063775a25e3116100a2578063b88d4fde11610071578063b88d4fde14610305578063c575757a14610321578063c87b56dd14610351578063de9d132f14610381578063e985e9c51461038b57610116565b8063775a25e31461027d57806395d89b411461029b578063a22cb465146102b9578063b187301f146102d557610116565b806323b872dd116100e957806323b872dd146101b55780632de38d68146101d157806342842e0e146102015780636352211e1461021d57806370a082311461024d57610116565b806301ffc9a71461011b57806306fdde031461014b578063081812fc14610169578063095ea7b314610199575b600080fd5b6101356004803603810190610130919061266e565b6103bb565b60405161014291906132d0565b60405180910390f35b61015361049d565b60405161016091906132eb565b60405180910390f35b610183600480360381019061017e91906126c0565b61052f565b6040516101909190613240565b60405180910390f35b6101b360048036038101906101ae9190612632565b6105b4565b005b6101cf60048036038101906101ca919061252c565b6106cc565b005b6101eb60048036038101906101e691906126c0565b61072c565b6040516101f891906132eb565b60405180910390f35b61021b6004803603810190610216919061252c565b61084a565b005b610237600480360381019061023291906126c0565b61086a565b6040516102449190613240565b60405180910390f35b610267600480360381019061026291906124c7565b61091c565b604051610274919061359b565b60405180910390f35b6102856109d4565b604051610292919061359b565b60405180910390f35b6102a3610a2d565b6040516102b091906132eb565b60405180910390f35b6102d360048036038101906102ce91906125f6565b610abf565b005b6102ef60048036038101906102ea91906126c0565b610c40565b6040516102fc91906132eb565b60405180910390f35b61031f600480360381019061031a919061257b565b610d5e565b005b61033b600480360381019061033691906126c0565b610dc0565b60405161034891906132eb565b60405180910390f35b61036b600480360381019061036691906126c0565b610ede565b60405161037891906132eb565b60405180910390f35b610389611030565b005b6103a560048036038101906103a091906124f0565b6112ab565b6040516103b291906132d0565b60405180910390f35b60007f80ac58cd000000000000000000000000000000000000000000000000000000007bffffffffffffffffffffffffffffffffffffffffffffffffffffffff1916827bffffffffffffffffffffffffffffffffffffffffffffffffffffffff1916148061048657507f5b5e139f000000000000000000000000000000000000000000000000000000007bffffffffffffffffffffffffffffffffffffffffffffffffffffffff1916827bffffffffffffffffffffffffffffffffffffffffffffffffffffffff1916145b806104965750610495826113d8565b5b9050919050565b6060600080546104ac9061383a565b80601f01602080910402602001604051908101604052809291908181526020018280546104d89061383a565b80156105255780601f106104fa57610100808354040283529160200191610525565b820191906000526020600020905b81548152906001019060200180831161050857829003601f168201915b5050505050905090565b600061053a82611442565b610579576040517f08c379a0000000000000000000000000000000000000000000000000000000008152600401610570906134fb565b60405180910390fd5b6004600083815260200190815260200160002060009054906101000a900473ffffffffffffffffffffffffffffffffffffffff169050919050565b60006105bf8261086a565b90508073ffffffffffffffffffffffffffffffffffffffff168373ffffffffffffffffffffffffffffffffffffffff161415610630576040517f08c379a00000000000000000000000000000000000000000000000000000000081526004016106279061355b565b60405180910390fd5b8073ffffffffffffffffffffffffffffffffffffffff1661064f6114ae565b73ffffffffffffffffffffffffffffffffffffffff16148061067e575061067d816106786114ae565b6112ab565b5b6106bd576040517f08c379a00000000000000000000000000000000000000000000000000000000081526004016106b49061341b565b60405180910390fd5b6106c783836114b6565b505050565b6106dd6106d76114ae565b8261156f565b61071c576040517f08c379a00000000000000000000000000000000000000000000000000000000081526004016107139061357b565b60405180910390fd5b61072783838361164d565b505050565b6060600061076061073c846118a9565b60405160200161074c91906131fc565b604051602081830303815290604052611a56565b90506009805490508161077391906138b5565b9050600981815481106107af577f4e487b7100000000000000000000000000000000000000000000000000000000600052603260045260246000fd5b9060005260206000200180546107c49061383a565b80601f01602080910402602001604051908101604052809291908181526020018280546107f09061383a565b801561083d5780601f106108125761010080835404028352916020019161083d565b820191906000526020600020905b81548152906001019060200180831161082057829003601f168201915b5050505050915050919050565b61086583838360405180602001604052806000815250610d5e565b505050565b6000806002600084815260200190815260200160002060009054906101000a900473ffffffffffffffffffffffffffffffffffffffff169050600073ffffffffffffffffffffffffffffffffffffffff168173ffffffffffffffffffffffffffffffffffffffff161415610913576040517f08c379a000000000000000000000000000000000000000000000000000000000815260040161090a9061347b565b60405180910390fd5b80915050919050565b60008073ffffffffffffffffffffffffffffffffffffffff168273ffffffffffffffffffffffffffffffffffffffff16141561098d576040517f08c379a00000000000000000000000000000000000000000000000000000000081526004016109849061345b565b60405180910390fd5b600360008373ffffffffffffffffffffffffffffffffffffffff1673ffffffffffffffffffffffffffffffffffffffff168152602001908152602001600020549050919050565b6000610a1e6040518060400160405280600581526020017f544f54414c000000000000000000000000000000000000000000000000000000815250610a196007611a89565b611a97565b610a286007611a89565b905090565b606060018054610a3c9061383a565b80601f0160208091040260200160405190810160405280929190818152602001828054610a689061383a565b8015610ab55780601f10610a8a57610100808354040283529160200191610ab5565b820191906000526020600020905b815481529060010190602001808311610a9857829003601f168201915b5050505050905090565b610ac76114ae565b73ffffffffffffffffffffffffffffffffffffffff168273ffffffffffffffffffffffffffffffffffffffff161415610b35576040517f08c379a0000000000000000000000000000000000000000000000000000000008152600401610b2c906133db565b60405180910390fd5b8060056000610b426114ae565b73ffffffffffffffffffffffffffffffffffffffff1673ffffffffffffffffffffffffffffffffffffffff16815260200190815260200160002060008473ffffffffffffffffffffffffffffffffffffffff1673ffffffffffffffffffffffffffffffffffffffff16815260200190815260200160002060006101000a81548160ff0219169083151502179055508173ffffffffffffffffffffffffffffffffffffffff16610bef6114ae565b73ffffffffffffffffffffffffffffffffffffffff167f17307eab39ab6107e8899845ad3d59bd9653f200f220920489ca2b5937696c3183604051610c3491906132d0565b60405180910390a35050565b60606000610c74610c50846118a9565b604051602001610c609190613195565b604051602081830303815290604052611a56565b9050600a8054905081610c8791906138b5565b9050600a8181548110610cc3577f4e487b7100000000000000000000000000000000000000000000000000000000600052603260045260246000fd5b906000526020600020018054610cd89061383a565b80601f0160208091040260200160405190810160405280929190818152602001828054610d049061383a565b8015610d515780601f10610d2657610100808354040283529160200191610d51565b820191906000526020600020905b815481529060010190602001808311610d3457829003601f168201915b5050505050915050919050565b610d6f610d696114ae565b8361156f565b610dae576040517f08c379a0000000000000000000000000000000000000000000000000000000008152600401610da59061357b565b60405180910390fd5b610dba84848484611b33565b50505050565b60606000610df4610dd0846118a9565b604051602001610de09190613173565b604051602081830303815290604052611a56565b9050600b8054905081610e0791906138b5565b9050600b8181548110610e43577f4e487b7100000000000000000000000000000000000000000000000000000000600052603260045260246000fd5b906000526020600020018054610e589061383a565b80601f0160208091040260200160405190810160405280929190818152602001828054610e849061383a565b8015610ed15780601f10610ea657610100808354040283529160200191610ed1565b820191906000526020600020905b815481529060010190602001808311610eb457829003601f168201915b5050505050915050919050565b6060610ee982611442565b610f28576040517f08c379a0000000000000000000000000000000000000000000000000000000008152600401610f1f906134db565b60405180910390fd5b6000600660008481526020019081526020016000208054610f489061383a565b80601f0160208091040260200160405190810160405280929190818152602001828054610f749061383a565b8015610fc15780601f10610f9657610100808354040283529160200191610fc1565b820191906000526020600020905b815481529060010190602001808311610fa457829003601f168201915b505050505090506000610fd2611b8f565b9050600081511415610fe857819250505061102b565b60008251111561101d5780826040516020016110059291906130ef565b6040516020818303038152906040529250505061102b565b61102684611ba6565b925050505b919050565b600f61103c6007611a89565b1061107c576040517f08c379a00000000000000000000000000000000000000000000000000000000081526004016110739061343b565b60405180910390fd5b60006110886007611a89565b90506110d26040518060400160405280600781526020017f63757272656e74000000000000000000000000000000000000000000000000008152506110cd6007611a89565b611a97565b60006110dd8261072c565b905060006110ea83610c40565b905060006110f784610dc0565b9050600083838360405160200161111093929190613113565b60405160208183030381529060405290506000600882604051602001611137929190613144565b6040516020818303038152906040529050600061117c8361115784611c4d565b6040516020016111689291906131b7565b604051602081830303815290604052611c4d565b9050600081604051602001611191919061321e565b60405160208183030381529060405290506111e06040518060400160405280601581526020017f0a2d2d2d2d2d2d2d2d2d2d2d2d2d2d2d2d2d2d2d2d000000000000000000000081525061133f565b6111e98161133f565b6112276040518060400160405280601581526020017f2d2d2d2d2d2d2d2d2d2d2d2d2d2d2d2d2d2d2d2d0a000000000000000000000081525061133f565b6112313389611e0b565b61123b8882611e29565b6112456007611e9d565b611268604051806060016040528060258152602001613a10602591398933611eb3565b7febb98688741ffa4c7589bf325de30cf7becb63de567842e1ccdb6cb949fdc82c33896040516112999291906132a7565b60405180910390a15050505050505050565b6000600560008473ffffffffffffffffffffffffffffffffffffffff1673ffffffffffffffffffffffffffffffffffffffff16815260200190815260200160002060008373ffffffffffffffffffffffffffffffffffffffff1673ffffffffffffffffffffffffffffffffffffffff16815260200190815260200160002060009054906101000a900460ff16905092915050565b6113d58160405160240161135391906132eb565b6040516020818303038152906040527f41304fac000000000000000000000000000000000000000000000000000000007bffffffffffffffffffffffffffffffffffffffffffffffffffffffff19166020820180517bffffffffffffffffffffffffffffffffffffffffffffffffffffffff8381831617835250505050611f52565b50565b60007f01ffc9a7000000000000000000000000000000000000000000000000000000007bffffffffffffffffffffffffffffffffffffffffffffffffffffffff1916827bffffffffffffffffffffffffffffffffffffffffffffffffffffffff1916149050919050565b60008073ffffffffffffffffffffffffffffffffffffffff166002600084815260200190815260200160002060009054906101000a900473ffffffffffffffffffffffffffffffffffffffff1673ffffffffffffffffffffffffffffffffffffffff1614159050919050565b600033905090565b816004600083815260200190815260200160002060006101000a81548173ffffffffffffffffffffffffffffffffffffffff021916908373ffffffffffffffffffffffffffffffffffffffff160217905550808273ffffffffffffffffffffffffffffffffffffffff166115298361086a565b73ffffffffffffffffffffffffffffffffffffffff167f8c5be1e5ebec7d5bd14f71427d1e84f3dd0314c0f7b2291e5b200ac8c7c3b92560405160405180910390a45050565b600061157a82611442565b6115b9576040517f08c379a00000000000000000000000000000000000000000000000000000000081526004016115b0906133fb565b60405180910390fd5b60006115c48361086a565b90508073ffffffffffffffffffffffffffffffffffffffff168473ffffffffffffffffffffffffffffffffffffffff16148061163357508373ffffffffffffffffffffffffffffffffffffffff1661161b8461052f565b73ffffffffffffffffffffffffffffffffffffffff16145b80611644575061164381856112ab565b5b91505092915050565b8273ffffffffffffffffffffffffffffffffffffffff1661166d8261086a565b73ffffffffffffffffffffffffffffffffffffffff16146116c3576040517f08c379a00000000000000000000000000000000000000000000000000000000081526004016116ba9061351b565b60405180910390fd5b600073ffffffffffffffffffffffffffffffffffffffff168273ffffffffffffffffffffffffffffffffffffffff161415611733576040517f08c379a000000000000000000000000000000000000000000000000000000000815260040161172a906133bb565b60405180910390fd5b61173e838383611f7b565b6117496000826114b6565b6001600360008573ffffffffffffffffffffffffffffffffffffffff1673ffffffffffffffffffffffffffffffffffffffff16815260200190815260200160002060008282546117999190613750565b925050819055506001600360008473ffffffffffffffffffffffffffffffffffffffff1673ffffffffffffffffffffffffffffffffffffffff16815260200190815260200160002060008282546117f0919061366f565b92505081905550816002600083815260200190815260200160002060006101000a81548173ffffffffffffffffffffffffffffffffffffffff021916908373ffffffffffffffffffffffffffffffffffffffff160217905550808273ffffffffffffffffffffffffffffffffffffffff168473ffffffffffffffffffffffffffffffffffffffff167fddf252ad1be2c89b69c2b068fc378daa952ba7f163c4a11628f55a4df523b3ef60405160405180910390a4505050565b606060008214156118f1576040518060400160405280600181526020017f30000000000000000000000000000000000000000000000000000000000000008152509050611a51565b600082905060005b6000821461192357808061190c9061386c565b915050600a8261191c91906136c5565b91506118f9565b60008167ffffffffffffffff811115611965577f4e487b7100000000000000000000000000000000000000000000000000000000600052604160045260246000fd5b6040519080825280601f01601f1916602001820160405280156119975781602001600182028036833780820191505090505b5090505b60008514611a4a576001826119b09190613750565b9150600a856119bf91906138b5565b60306119cb919061366f565b60f81b818381518110611a07577f4e487b7100000000000000000000000000000000000000000000000000000000600052603260045260246000fd5b60200101907effffffffffffffffffffffffffffffffffffffffffffffffffffffffffffff1916908160001a905350600a85611a4391906136c5565b945061199b565b8093505050505b919050565b600081604051602001611a6991906130d8565b6040516020818303038152906040528051906020012060001c9050919050565b600081600001549050919050565b611b2f8282604051602401611aad92919061330d565b6040516020818303038152906040527f9710a9d0000000000000000000000000000000000000000000000000000000007bffffffffffffffffffffffffffffffffffffffffffffffffffffffff19166020820180517bffffffffffffffffffffffffffffffffffffffffffffffffffffffff8381831617835250505050611f52565b5050565b611b3e84848461164d565b611b4a84848484611f80565b611b89576040517f08c379a0000000000000000000000000000000000000000000000000000000008152600401611b809061337b565b60405180910390fd5b50505050565b606060405180602001604052806000815250905090565b6060611bb182611442565b611bf0576040517f08c379a0000000000000000000000000000000000000000000000000000000008152600401611be79061353b565b60405180910390fd5b6000611bfa611b8f565b90506000815111611c1a5760405180602001604052806000815250611c45565b80611c24846118a9565b604051602001611c359291906130ef565b6040516020818303038152906040525b915050919050565b60606000825190506000811415611c765760405180602001604052806000815250915050611e06565b60006003600283611c87919061366f565b611c9191906136c5565b6004611c9d91906136f6565b90506000602082611cae919061366f565b67ffffffffffffffff811115611ced577f4e487b7100000000000000000000000000000000000000000000000000000000600052604160045260246000fd5b6040519080825280601f01601f191660200182016040528015611d1f5781602001600182028036833780820191505090505b5090506000604051806060016040528060408152602001613a35604091399050600181016020830160005b86811015611dc35760038101905062ffffff818a015116603f8160121c168401518060081b905060ff603f83600c1c1686015116810190508060081b905060ff603f8360061c1686015116810190508060081b905060ff603f831686015116810190508060e01b90508084526004840193505050611d4a565b506003860660018114611ddd5760028114611ded57611df8565b613d3d60f01b6002830352611df8565b603d60f81b60018303525b508484525050819450505050505b919050565b611e25828260405180602001604052806000815250612117565b5050565b611e3282611442565b611e71576040517f08c379a0000000000000000000000000000000000000000000000000000000008152600401611e689061349b565b60405180910390fd5b80600660008481526020019081526020016000209080519060200190611e98929190612353565b505050565b6001816000016000828254019250508190555050565b611f4d838383604051602401611ecb9392919061333d565b6040516020818303038152906040527fe3849f79000000000000000000000000000000000000000000000000000000007bffffffffffffffffffffffffffffffffffffffffffffffffffffffff19166020820180517bffffffffffffffffffffffffffffffffffffffffffffffffffffffff8381831617835250505050611f52565b505050565b60008151905060006a636f6e736f6c652e6c6f679050602083016000808483855afa5050505050565b505050565b6000611fa18473ffffffffffffffffffffffffffffffffffffffff16612172565b1561210a578373ffffffffffffffffffffffffffffffffffffffff1663150b7a02611fca6114ae565b8786866040518563ffffffff1660e01b8152600401611fec949392919061325b565b602060405180830381600087803b15801561200657600080fd5b505af192505050801561203757506040513d601f19601f820116820180604052508101906120349190612697565b60015b6120ba573d8060008114612067576040519150601f19603f3d011682016040523d82523d6000602084013e61206c565b606091505b506000815114156120b2576040517f08c379a00000000000000000000000000000000000000000000000000000000081526004016120a99061337b565b60405180910390fd5b805181602001fd5b63150b7a0260e01b7bffffffffffffffffffffffffffffffffffffffffffffffffffffffff1916817bffffffffffffffffffffffffffffffffffffffffffffffffffffffff19161491505061210f565b600190505b949350505050565b6121218383612185565b61212e6000848484611f80565b61216d576040517f08c379a00000000000000000000000000000000000000000000000000000000081526004016121649061337b565b60405180910390fd5b505050565b600080823b905060008111915050919050565b600073ffffffffffffffffffffffffffffffffffffffff168273ffffffffffffffffffffffffffffffffffffffff1614156121f5576040517f08c379a00000000000000000000000000000000000000000000000000000000081526004016121ec906134bb565b60405180910390fd5b6121fe81611442565b1561223e576040517f08c379a00000000000000000000000000000000000000000000000000000000081526004016122359061339b565b60405180910390fd5b61224a60008383611f7b565b6001600360008473ffffffffffffffffffffffffffffffffffffffff1673ffffffffffffffffffffffffffffffffffffffff168152602001908152602001600020600082825461229a919061366f565b92505081905550816002600083815260200190815260200160002060006101000a81548173ffffffffffffffffffffffffffffffffffffffff021916908373ffffffffffffffffffffffffffffffffffffffff160217905550808273ffffffffffffffffffffffffffffffffffffffff16600073ffffffffffffffffffffffffffffffffffffffff167fddf252ad1be2c89b69c2b068fc378daa952ba7f163c4a11628f55a4df523b3ef60405160405180910390a45050565b82805461235f9061383a565b90600052602060002090601f01602090048101928261238157600085556123c8565b82601f1061239a57805160ff19168380011785556123c8565b828001600101855582156123c8579182015b828111156123c75782518255916020019190600101906123ac565b5b5090506123d591906123d9565b5090565b5b808211156123f25760008160009055506001016123da565b5090565b6000612409612404846135e7565b6135b6565b90508281526020810184848401111561242157600080fd5b61242c8482856137f8565b509392505050565b600081359050612443816139b3565b92915050565b600081359050612458816139ca565b92915050565b60008135905061246d816139e1565b92915050565b600081519050612482816139e1565b92915050565b600082601f83011261249957600080fd5b81356124a98482602086016123f6565b91505092915050565b6000813590506124c1816139f8565b92915050565b6000602082840312156124d957600080fd5b60006124e784828501612434565b91505092915050565b6000806040838503121561250357600080fd5b600061251185828601612434565b925050602061252285828601612434565b9150509250929050565b60008060006060848603121561254157600080fd5b600061254f86828701612434565b935050602061256086828701612434565b9250506040612571868287016124b2565b9150509250925092565b6000806000806080858703121561259157600080fd5b600061259f87828801612434565b94505060206125b087828801612434565b93505060406125c1878288016124b2565b925050606085013567ffffffffffffffff8111156125de57600080fd5b6125ea87828801612488565b91505092959194509250565b6000806040838503121561260957600080fd5b600061261785828601612434565b925050602061262885828601612449565b9150509250929050565b6000806040838503121561264557600080fd5b600061265385828601612434565b9250506020612664858286016124b2565b9150509250929050565b60006020828403121561268057600080fd5b600061268e8482850161245e565b91505092915050565b6000602082840312156126a957600080fd5b60006126b784828501612473565b91505092915050565b6000602082840312156126d257600080fd5b60006126e0848285016124b2565b91505092915050565b6126f281613784565b82525050565b61270181613796565b82525050565b60006127128261362c565b61271c8185613642565b935061272c818560208601613807565b612735816139a2565b840191505092915050565b600061274b82613637565b6127558185613653565b9350612765818560208601613807565b61276e816139a2565b840191505092915050565b600061278482613637565b61278e8185613664565b935061279e818560208601613807565b80840191505092915050565b600081546127b78161383a565b6127c18186613664565b945060018216600081146127dc57600181146127ed57612820565b60ff19831686528186019350612820565b6127f685613617565b60005b83811015612818578154818901526001820191506020810190506127f9565b838801955050505b50505092915050565b6000612836603283613653565b91507f4552433732313a207472616e7366657220746f206e6f6e20455243373231526560008301527f63656976657220696d706c656d656e74657200000000000000000000000000006020830152604082019050919050565b600061289c601c83613653565b91507f4552433732313a20746f6b656e20616c7265616479206d696e746564000000006000830152602082019050919050565b60006128dc600a83613664565b91507f54484952445f574f5244000000000000000000000000000000000000000000006000830152600a82019050919050565b600061291c602483613653565b91507f4552433732313a207472616e7366657220746f20746865207a65726f2061646460008301527f72657373000000000000000000000000000000000000000000000000000000006020830152604082019050919050565b6000612982601983613653565b91507f4552433732313a20617070726f766520746f2063616c6c6572000000000000006000830152602082019050919050565b60006129c2606383613664565b91507f222c20226465736372697074696f6e223a20224120686967686c79206163636c60008301527f61696d656420636f6c6c656374696f6e206f6620737175617265732e222c202260208301527f696d616765223a2022646174613a696d6167652f7376672b786d6c3b6261736560408301527f36342c00000000000000000000000000000000000000000000000000000000006060830152606382019050919050565b6000612a74600b83613664565b91507f5345434f4e445f574f52440000000000000000000000000000000000000000006000830152600b82019050919050565b6000612ab4602c83613653565b91507f4552433732313a206f70657261746f7220717565727920666f72206e6f6e657860008301527f697374656e7420746f6b656e00000000000000000000000000000000000000006020830152604082019050919050565b6000612b1a600d83613664565b91507f3c2f746578743e3c2f7376673e000000000000000000000000000000000000006000830152600d82019050919050565b6000612b5a603883613653565b91507f4552433732313a20617070726f76652063616c6c6572206973206e6f74206f7760008301527f6e6572206e6f7220617070726f76656420666f7220616c6c00000000000000006020830152604082019050919050565b6000612bc0601083613653565b91507f6c696d69742069732072656163686564000000000000000000000000000000006000830152602082019050919050565b6000612c00602a83613653565b91507f4552433732313a2062616c616e636520717565727920666f7220746865207a6560008301527f726f2061646472657373000000000000000000000000000000000000000000006020830152604082019050919050565b6000612c66602983613653565b91507f4552433732313a206f776e657220717565727920666f72206e6f6e657869737460008301527f656e7420746f6b656e00000000000000000000000000000000000000000000006020830152604082019050919050565b6000612ccc602e83613653565b91507f45524337323155524953746f726167653a2055524920736574206f66206e6f6e60008301527f6578697374656e7420746f6b656e0000000000000000000000000000000000006020830152604082019050919050565b6000612d32600283613664565b91507f227d0000000000000000000000000000000000000000000000000000000000006000830152600282019050919050565b6000612d72602083613653565b91507f4552433732313a206d696e7420746f20746865207a65726f20616464726573736000830152602082019050919050565b6000612db2603183613653565b91507f45524337323155524953746f726167653a2055524920717565727920666f722060008301527f6e6f6e6578697374656e7420746f6b656e0000000000000000000000000000006020830152604082019050919050565b6000612e18602c83613653565b91507f4552433732313a20617070726f76656420717565727920666f72206e6f6e657860008301527f697374656e7420746f6b656e00000000000000000000000000000000000000006020830152604082019050919050565b6000612e7e602983613653565b91507f4552433732313a207472616e73666572206f6620746f6b656e2074686174206960008301527f73206e6f74206f776e00000000000000000000000000000000000000000000006020830152604082019050919050565b6000612ee4602f83613653565b91507f4552433732314d657461646174613a2055524920717565727920666f72206e6f60008301527f6e6578697374656e7420746f6b656e00000000000000000000000000000000006020830152604082019050919050565b6000612f4a600a83613664565b91507f7b226e616d65223a2022000000000000000000000000000000000000000000006000830152600a82019050919050565b6000612f8a602183613653565b91507f4552433732313a20617070726f76616c20746f2063757272656e74206f776e6560008301527f72000000000000000000000000000000000000000000000000000000000000006020830152604082019050919050565b6000612ff0600a83613664565b91507f46495253545f574f5244000000000000000000000000000000000000000000006000830152600a82019050919050565b6000613030601d83613664565b91507f646174613a6170706c69636174696f6e2f6a736f6e3b6261736536342c0000006000830152601d82019050919050565b6000613070603183613653565b91507f4552433732313a207472616e736665722063616c6c6572206973206e6f74206f60008301527f776e6572206e6f7220617070726f7665640000000000000000000000000000006020830152604082019050919050565b6130d2816137ee565b82525050565b60006130e48284612779565b915081905092915050565b60006130fb8285612779565b91506131078284612779565b91508190509392505050565b600061311f8286612779565b915061312b8285612779565b91506131378284612779565b9150819050949350505050565b600061315082856127aa565b915061315c8284612779565b915061316782612b0d565b91508190509392505050565b600061317e826128cf565b915061318a8284612779565b915081905092915050565b60006131a082612a67565b91506131ac8284612779565b915081905092915050565b60006131c282612f3d565b91506131ce8285612779565b91506131d9826129b5565b91506131e58284612779565b91506131f082612d25565b91508190509392505050565b600061320782612fe3565b91506132138284612779565b915081905092915050565b600061322982613023565b91506132358284612779565b915081905092915050565b600060208201905061325560008301846126e9565b92915050565b600060808201905061327060008301876126e9565b61327d60208301866126e9565b61328a60408301856130c9565b818103606083015261329c8184612707565b905095945050505050565b60006040820190506132bc60008301856126e9565b6132c960208301846130c9565b9392505050565b60006020820190506132e560008301846126f8565b92915050565b600060208201905081810360008301526133058184612740565b905092915050565b600060408201905081810360008301526133278185612740565b905061333660208301846130c9565b9392505050565b600060608201905081810360008301526133578186612740565b905061336660208301856130c9565b61337360408301846126e9565b949350505050565b6000602082019050818103600083015261339481612829565b9050919050565b600060208201905081810360008301526133b48161288f565b9050919050565b600060208201905081810360008301526133d48161290f565b9050919050565b600060208201905081810360008301526133f481612975565b9050919050565b6000602082019050818103600083015261341481612aa7565b9050919050565b6000602082019050818103600083015261343481612b4d565b9050919050565b6000602082019050818103600083015261345481612bb3565b9050919050565b6000602082019050818103600083015261347481612bf3565b9050919050565b6000602082019050818103600083015261349481612c59565b9050919050565b600060208201905081810360008301526134b481612cbf565b9050919050565b600060208201905081810360008301526134d481612d65565b9050919050565b600060208201905081810360008301526134f481612da5565b9050919050565b6000602082019050818103600083015261351481612e0b565b9050919050565b6000602082019050818103600083015261353481612e71565b9050919050565b6000602082019050818103600083015261355481612ed7565b9050919050565b6000602082019050818103600083015261357481612f7d565b9050919050565b6000602082019050818103600083015261359481613063565b9050919050565b60006020820190506135b060008301846130c9565b92915050565b6000604051905081810181811067ffffffffffffffff821117156135dd576135dc613973565b5b8060405250919050565b600067ffffffffffffffff82111561360257613601613973565b5b601f19601f8301169050602081019050919050565b60008190508160005260206000209050919050565b600081519050919050565b600081519050919050565b600082825260208201905092915050565b600082825260208201905092915050565b600081905092915050565b600061367a826137ee565b9150613685836137ee565b9250827fffffffffffffffffffffffffffffffffffffffffffffffffffffffffffffffff038211156136ba576136b96138e6565b5b828201905092915050565b60006136d0826137ee565b91506136db836137ee565b9250826136eb576136ea613915565b5b828204905092915050565b6000613701826137ee565b915061370c836137ee565b9250817fffffffffffffffffffffffffffffffffffffffffffffffffffffffffffffffff0483118215151615613745576137446138e6565b5b828202905092915050565b600061375b826137ee565b9150613766836137ee565b925082821015613779576137786138e6565b5b828203905092915050565b600061378f826137ce565b9050919050565b60008115159050919050565b60007fffffffff0000000000000000000000000000000000000000000000000000000082169050919050565b600073ffffffffffffffffffffffffffffffffffffffff82169050919050565b6000819050919050565b82818337600083830152505050565b60005b8381101561382557808201518184015260208101905061380a565b83811115613834576000848401525b50505050565b6000600282049050600182168061385257607f821691505b6020821081141561386657613865613944565b5b50919050565b6000613877826137ee565b91507fffffffffffffffffffffffffffffffffffffffffffffffffffffffffffffffff8214156138aa576138a96138e6565b5b600182019050919050565b60006138c0826137ee565b91506138cb836137ee565b9250826138db576138da613915565b5b828206905092915050565b7f4e487b7100000000000000000000000000000000000000000000000000000000600052601160045260246000fd5b7f4e487b7100000000000000000000000000000000000000000000000000000000600052601260045260246000fd5b7f4e487b7100000000000000000000000000000000000000000000000000000000600052602260045260246000fd5b7f4e487b7100000000000000000000000000000000000000000000000000000000600052604160045260246000fd5b6000601f19601f8301169050919050565b6139bc81613784565b81146139c757600080fd5b50565b6139d381613796565b81146139de57600080fd5b50565b6139ea816137a2565b81146139f557600080fd5b50565b613a01816137ee565b8114613a0c57600080fd5b5056fe416e204e465420772f20494420257320686173206265656e206d696e74656420746f2025734142434445464748494a4b4c4d4e4f505152535455565758595a6162636465666768696a6b6c6d6e6f707172737475767778797a303132333435363738392b2fa26469706673582212201b7a2f3e63b8ab680111e42e8782f7b69b2c262ac243d8673bcbbf5988a1056a64736f6c634300080000333c73766720786d6c6e733d27687474703a2f2f7777772e77332e6f72672f323030302f73766727207072657365727665417370656374526174696f3d27784d696e594d696e206d656574272076696577426f783d273020302033353020333530273e3c7374796c653e2e62617365207b2066696c6c3a2077686974653b20666f6e742d66616d696c793a2073657269663b20666f6e742d73697a653a20323470783b207d3c2f7374796c653e3c726563742077696474683d273130302527206865696768743d2731303025272066696c6c3d27626c61636b27202f3e3c7465787420783d273530252720793d273530252720636c6173733d27626173652720646f6d696e616e742d626173656c696e653d276d6964646c652720746578742d616e63686f723d276d6964646c65273e",
  "linkReferences": {},
  "deployedLinkReferences": {}
}